{
  "_format": "hh-sol-artifact-1",
  "contractName": "HelloWorld",
  "sourceName": "contracts/HelloWorld.sol",
  "abi": [
    {
      "inputs": [
        {
          "internalType": "string",
          "name": "_helloMessage",
          "type": "string"
        }
      ],
      "stateMutability": "nonpayable",
      "type": "constructor"
    },
    {
      "inputs": [],
      "name": "hello",
      "outputs": [
        {
          "internalType": "string",
          "name": "",
          "type": "string"
        }
      ],
      "stateMutability": "view",
      "type": "function"
    },
    {
      "inputs": [
        {
          "internalType": "string",
          "name": "_helloMessage",
          "type": "string"
        }
      ],
      "name": "setHello",
      "outputs": [],
      "stateMutability": "nonpayable",
      "type": "function"
    }
  ],
  "bytecode": "0x60806040523480156200001157600080fd5b5060405162000bf638038062000bf6833981810160405281019062000037919062000267565b6200004d816200006d60201b620001ce1760201c565b80600090805190602001906200006592919062000139565b5050620004bd565b6200010d81604051602401620000849190620002f9565b6040516020818303038152906040527f41304fac000000000000000000000000000000000000000000000000000000007bffffffffffffffffffffffffffffffffffffffffffffffffffffffff19166020820180517bffffffffffffffffffffffffffffffffffffffffffffffffffffffff83818316178352505050506200011060201b60201c565b50565b60008151905060006a636f6e736f6c652e6c6f679050602083016000808483855afa5050505050565b8280546200014790620003ce565b90600052602060002090601f0160209004810192826200016b5760008555620001b7565b82601f106200018657805160ff1916838001178555620001b7565b82800160010185558215620001b7579182015b82811115620001b657825182559160200191906001019062000199565b5b509050620001c69190620001ca565b5090565b5b80821115620001e5576000816000905550600101620001cb565b5090565b600062000200620001fa8462000346565b6200031d565b9050828152602081018484840111156200021f576200021e6200049d565b5b6200022c84828562000398565b509392505050565b600082601f8301126200024c576200024b62000498565b5b81516200025e848260208601620001e9565b91505092915050565b60006020828403121562000280576200027f620004a7565b5b600082015167ffffffffffffffff811115620002a157620002a0620004a2565b5b620002af8482850162000234565b91505092915050565b6000620002c5826200037c565b620002d1818562000387565b9350620002e381856020860162000398565b620002ee81620004ac565b840191505092915050565b60006020820190508181036000830152620003158184620002b8565b905092915050565b6000620003296200033c565b905062000337828262000404565b919050565b6000604051905090565b600067ffffffffffffffff82111562000364576200036362000469565b5b6200036f82620004ac565b9050602081019050919050565b600081519050919050565b600082825260208201905092915050565b60005b83811015620003b85780820151818401526020810190506200039b565b83811115620003c8576000848401525b50505050565b60006002820490506001821680620003e757607f821691505b60208210811415620003fe57620003fd6200043a565b5b50919050565b6200040f82620004ac565b810181811067ffffffffffffffff8211171562000431576200043062000469565b5b80604052505050565b7f4e487b7100000000000000000000000000000000000000000000000000000000600052602260045260246000fd5b7f4e487b7100000000000000000000000000000000000000000000000000000000600052604160045260246000fd5b600080fd5b600080fd5b600080fd5b600080fd5b6000601f19601f8301169050919050565b61072980620004cd6000396000f3fe608060405234801561001057600080fd5b50600436106100365760003560e01c806319ff1d211461003b578063435ffe9414610059575b600080fd5b610043610075565b60405161005091906104c4565b60405180910390f35b610073600480360381019061006e9190610442565b610107565b005b606060008054610084906105e6565b80601f01602080910402602001604051908101604052809291908181526020018280546100b0906105e6565b80156100fd5780601f106100d2576101008083540402835291602001916100fd565b820191906000526020600020905b8154815290600101906020018083116100e057829003601f168201915b5050505050905090565b6101b46040518060600160405280602781526020016106cd6027913960008054610130906105e6565b80601f016020809104026020016040519081016040528092919081815260200182805461015c906105e6565b80156101a95780601f1061017e576101008083540402835291602001916101a9565b820191906000526020600020905b81548152906001019060200180831161018c57829003601f168201915b505050505083610267565b80600090805190602001906101ca92919061032f565b5050565b610264816040516024016101e291906104c4565b6040516020818303038152906040527f41304fac000000000000000000000000000000000000000000000000000000007bffffffffffffffffffffffffffffffffffffffffffffffffffffffff19166020820180517bffffffffffffffffffffffffffffffffffffffffffffffffffffffff8381831617835250505050610306565b50565b61030183838360405160240161027f939291906104e6565b6040516020818303038152906040527f2ced7cef000000000000000000000000000000000000000000000000000000007bffffffffffffffffffffffffffffffffffffffffffffffffffffffff19166020820180517bffffffffffffffffffffffffffffffffffffffffffffffffffffffff8381831617835250505050610306565b505050565b60008151905060006a636f6e736f6c652e6c6f679050602083016000808483855afa5050505050565b82805461033b906105e6565b90600052602060002090601f01602090048101928261035d57600085556103a4565b82601f1061037657805160ff19168380011785556103a4565b828001600101855582156103a4579182015b828111156103a3578251825591602001919060010190610388565b5b5090506103b191906103b5565b5090565b5b808211156103ce5760008160009055506001016103b6565b5090565b60006103e56103e084610557565b610532565b905082815260208101848484011115610401576104006106ac565b5b61040c8482856105a4565b509392505050565b600082601f830112610429576104286106a7565b5b81356104398482602086016103d2565b91505092915050565b600060208284031215610458576104576106b6565b5b600082013567ffffffffffffffff811115610476576104756106b1565b5b61048284828501610414565b91505092915050565b600061049682610588565b6104a08185610593565b93506104b08185602086016105b3565b6104b9816106bb565b840191505092915050565b600060208201905081810360008301526104de818461048b565b905092915050565b60006060820190508181036000830152610500818661048b565b90508181036020830152610514818561048b565b90508181036040830152610528818461048b565b9050949350505050565b600061053c61054d565b90506105488282610618565b919050565b6000604051905090565b600067ffffffffffffffff82111561057257610571610678565b5b61057b826106bb565b9050602081019050919050565b600081519050919050565b600082825260208201905092915050565b82818337600083830152505050565b60005b838110156105d15780820151818401526020810190506105b6565b838111156105e0576000848401525b50505050565b600060028204905060018216806105fe57607f821691505b6020821081141561061257610611610649565b5b50919050565b610621826106bb565b810181811067ffffffffffffffff821117156106405761063f610678565b5b80604052505050565b7f4e487b7100000000000000000000000000000000000000000000000000000000600052602260045260246000fd5b7f4e487b7100000000000000000000000000000000000000000000000000000000600052604160045260246000fd5b600080fd5b600080fd5b600080fd5b600080fd5b6000601f19601f830116905091905056fe4368616e67696e672068656c6c6f4d6573736167652066726f6d202725732720746f2027257327a2646970667358221220439583c4091bea56d4da393aee28eaed8a2c57a65534da0172d607b734d6fcf764736f6c63430008060033",
  "linkReferences": {},
  "deployedLinkReferences": {}
}