{
  "_format": "hh-sol-artifact-1",
  "contractName": "WavePortal",
  "sourceName": "contracts/WavePortal.sol",
  "abi": [
    {
      "inputs": [],
      "stateMutability": "payable",
      "type": "constructor"
    },
    {
      "anonymous": false,
      "inputs": [
        {
          "indexed": false,
          "internalType": "enum WavePortal.Reaction",
          "name": "reaction",
          "type": "uint8"
        },
        {
          "indexed": false,
          "internalType": "string",
          "name": "message",
          "type": "string"
        },
        {
          "indexed": true,
          "internalType": "address",
          "name": "from",
          "type": "address"
        },
        {
          "indexed": false,
          "internalType": "uint256",
          "name": "timestamp",
          "type": "uint256"
        }
      ],
      "name": "NewWave",
      "type": "event"
    },
    {
      "inputs": [],
      "name": "getAllWaves",
      "outputs": [
        {
          "components": [
            {
              "internalType": "enum WavePortal.Reaction",
              "name": "reaction",
              "type": "uint8"
            },
            {
              "internalType": "string",
              "name": "message",
              "type": "string"
            },
            {
              "internalType": "address",
              "name": "waver",
              "type": "address"
            },
            {
              "internalType": "uint256",
              "name": "timestamp",
              "type": "uint256"
            }
          ],
          "internalType": "struct WavePortal.Wave[]",
          "name": "",
          "type": "tuple[]"
        }
      ],
      "stateMutability": "view",
      "type": "function"
    },
    {
      "inputs": [],
      "name": "getTotalWaves",
      "outputs": [
        {
          "internalType": "uint256",
          "name": "",
          "type": "uint256"
        }
      ],
      "stateMutability": "view",
      "type": "function"
    },
    {
      "inputs": [
        {
          "internalType": "address",
          "name": "",
          "type": "address"
        }
      ],
      "name": "lastWavedAt",
      "outputs": [
        {
          "internalType": "uint256",
          "name": "",
          "type": "uint256"
        }
      ],
      "stateMutability": "view",
      "type": "function"
    },
    {
      "inputs": [
        {
          "internalType": "enum WavePortal.Reaction",
          "name": "_reaction",
          "type": "uint8"
        },
        {
          "internalType": "string",
          "name": "_message",
          "type": "string"
        }
      ],
      "name": "wave",
      "outputs": [],
      "stateMutability": "nonpayable",
      "type": "function"
    },
    {
      "inputs": [
        {
          "internalType": "uint256",
          "name": "",
          "type": "uint256"
        }
      ],
      "name": "waveList",
      "outputs": [
        {
          "internalType": "enum WavePortal.Reaction",
          "name": "reaction",
          "type": "uint8"
        },
        {
          "internalType": "string",
          "name": "message",
          "type": "string"
        },
        {
          "internalType": "address",
          "name": "waver",
          "type": "address"
        },
        {
          "internalType": "uint256",
          "name": "timestamp",
          "type": "uint256"
        }
      ],
      "stateMutability": "view",
      "type": "function"
    }
  ],
  "bytecode": "0x6080604052610d48806100136000396000f3fe608060405234801561001057600080fd5b50600436106100575760003560e01c806348c29f141461005c5780638b9c3ecd146100785780639a2cdc08146100ab578063a42a4663146100c9578063bd43a908146100f9575b600080fd5b610076600480360381019061007191906106bf565b610117565b005b610092600480360381019061008d919061071b565b61029a565b6040516100a29493929190610922565b60405180910390f35b6100b361038f565b6040516100c091906109ac565b60405180910390f35b6100e360048036038101906100de9190610692565b61039c565b6040516100f091906109ac565b60405180910390f35b6101016103b4565b60405161010e9190610900565b60405180910390f35b60016000808282546101299190610a83565b92505081905550600260405180608001604052808460008111156101505761014f610c0e565b5b81526020018381526020013373ffffffffffffffffffffffffffffffffffffffff16815260200142815250908060018154018082558091505060019003906000526020600020906004020160009091909190915060008201518160000160006101000a81548160ff021916908360008111156101cf576101ce610c0e565b5b021790555060208201518160010190805190602001906101f0929190610540565b5060408201518160020160006101000a81548173ffffffffffffffffffffffffffffffffffffffff021916908373ffffffffffffffffffffffffffffffffffffffff1602179055506060820151816003015550503373ffffffffffffffffffffffffffffffffffffffff167f2d6873fdbcd96c625e1fafa3267b0aab6e37f9be7d7a32baf9f6875c5e29844483834260405161028e9392919061096e565b60405180910390a25050565b600281815481106102aa57600080fd5b90600052602060002090600402016000915090508060000160009054906101000a900460ff16908060010180546102e090610b7c565b80601f016020809104026020016040519081016040528092919081815260200182805461030c90610b7c565b80156103595780601f1061032e57610100808354040283529160200191610359565b820191906000526020600020905b81548152906001019060200180831161033c57829003601f168201915b5050505050908060020160009054906101000a900473ffffffffffffffffffffffffffffffffffffffff16908060030154905084565b6000600280549050905090565b60036020528060005260406000206000915090505481565b60606002805480602002602001604051908101604052809291908181526020016000905b8282101561053757838290600052602060002090600402016040518060800160405290816000820160009054906101000a900460ff1660008111156104205761041f610c0e565b5b600081111561043257610431610c0e565b5b815260200160018201805461044690610b7c565b80601f016020809104026020016040519081016040528092919081815260200182805461047290610b7c565b80156104bf5780601f10610494576101008083540402835291602001916104bf565b820191906000526020600020905b8154815290600101906020018083116104a257829003601f168201915b505050505081526020016002820160009054906101000a900473ffffffffffffffffffffffffffffffffffffffff1673ffffffffffffffffffffffffffffffffffffffff1673ffffffffffffffffffffffffffffffffffffffff168152602001600382015481525050815260200190600101906103d8565b50505050905090565b82805461054c90610b7c565b90600052602060002090601f01602090048101928261056e57600085556105b5565b82601f1061058757805160ff19168380011785556105b5565b828001600101855582156105b5579182015b828111156105b4578251825591602001919060010190610599565b5b5090506105c291906105c6565b5090565b5b808211156105df5760008160009055506001016105c7565b5090565b60006105f66105f1846109ec565b6109c7565b90508281526020810184848401111561061257610611610ca0565b5b61061d848285610b3a565b509392505050565b60008135905061063481610cd4565b92915050565b60008135905061064981610ceb565b92915050565b600082601f83011261066457610663610c9b565b5b81356106748482602086016105e3565b91505092915050565b60008135905061068c81610cfb565b92915050565b6000602082840312156106a8576106a7610caa565b5b60006106b684828501610625565b91505092915050565b600080604083850312156106d6576106d5610caa565b5b60006106e48582860161063a565b925050602083013567ffffffffffffffff81111561070557610704610ca5565b5b6107118582860161064f565b9150509250929050565b60006020828403121561073157610730610caa565b5b600061073f8482850161067d565b91505092915050565b6000610754838361087f565b905092915050565b61076581610ad9565b82525050565b61077481610ad9565b82525050565b600061078582610a2d565b61078f8185610a50565b9350836020820285016107a185610a1d565b8060005b858110156107dd57848403895281516107be8582610748565b94506107c983610a43565b925060208a019950506001810190506107a5565b50829750879550505050505092915050565b6107f881610b28565b82525050565b61080781610b28565b82525050565b600061081882610a38565b6108228185610a61565b9350610832818560208601610b49565b61083b81610caf565b840191505092915050565b600061085182610a38565b61085b8185610a72565b935061086b818560208601610b49565b61087481610caf565b840191505092915050565b600060808301600083015161089760008601826107ef565b50602083015184820360208601526108af828261080d565b91505060408301516108c4604086018261075c565b5060608301516108d760608601826108e2565b508091505092915050565b6108eb81610b1e565b82525050565b6108fa81610b1e565b82525050565b6000602082019050818103600083015261091a818461077a565b905092915050565b600060808201905061093760008301876107fe565b81810360208301526109498186610846565b9050610958604083018561076b565b61096560608301846108f1565b95945050505050565b600060608201905061098360008301866107fe565b81810360208301526109958185610846565b90506109a460408301846108f1565b949350505050565b60006020820190506109c160008301846108f1565b92915050565b60006109d16109e2565b90506109dd8282610bae565b919050565b6000604051905090565b600067ffffffffffffffff821115610a0757610a06610c6c565b5b610a1082610caf565b9050602081019050919050565b6000819050602082019050919050565b600081519050919050565b600081519050919050565b6000602082019050919050565b600082825260208201905092915050565b600082825260208201905092915050565b600082825260208201905092915050565b6000610a8e82610b1e565b9150610a9983610b1e565b9250827fffffffffffffffffffffffffffffffffffffffffffffffffffffffffffffffff03821115610ace57610acd610bdf565b5b828201905092915050565b6000610ae482610afe565b9050919050565b6000819050610af982610cc0565b919050565b600073ffffffffffffffffffffffffffffffffffffffff82169050919050565b6000819050919050565b6000610b3382610aeb565b9050919050565b82818337600083830152505050565b60005b83811015610b67578082015181840152602081019050610b4c565b83811115610b76576000848401525b50505050565b60006002820490506001821680610b9457607f821691505b60208210811415610ba857610ba7610c3d565b5b50919050565b610bb782610caf565b810181811067ffffffffffffffff82111715610bd657610bd5610c6c565b5b80604052505050565b7f4e487b7100000000000000000000000000000000000000000000000000000000600052601160045260246000fd5b7f4e487b7100000000000000000000000000000000000000000000000000000000600052602160045260246000fd5b7f4e487b7100000000000000000000000000000000000000000000000000000000600052602260045260246000fd5b7f4e487b7100000000000000000000000000000000000000000000000000000000600052604160045260246000fd5b600080fd5b600080fd5b600080fd5b600080fd5b6000601f19601f8301169050919050565b60018110610cd157610cd0610c0e565b5b50565b610cdd81610ad9565b8114610ce857600080fd5b50565b60018110610cf857600080fd5b50565b610d0481610b1e565b8114610d0f57600080fd5b5056fea2646970667358221220bef023967ed7adac6c8792e83b42172e25a268abeda55c18eada2c63cdb9575064736f6c63430008060033",
  "linkReferences": {},
  "deployedLinkReferences": {}
}